{
  "_format": "hh-sol-artifact-1",
  "contractName": "MyWalletDeployer",
  "sourceName": "contracts/MyWalletDeployer.sol",
  "abi": [
    {
      "inputs": [
        {
          "internalType": "contract IEntryPoint",
          "name": "entryPoint",
          "type": "address"
        },
        {
          "internalType": "address",
          "name": "owner",
          "type": "address"
        },
        {
          "internalType": "uint256",
          "name": "salt",
          "type": "uint256"
        }
      ],
      "name": "deployWallet",
      "outputs": [
        {
          "internalType": "contract MyWallet",
          "name": "",
          "type": "address"
        }
      ],
      "stateMutability": "nonpayable",
      "type": "function"
    },
    {
      "inputs": [
        {
          "internalType": "contract IEntryPoint",
          "name": "entryPoint",
          "type": "address"
        },
        {
          "internalType": "address",
          "name": "owner",
          "type": "address"
        },
        {
          "internalType": "uint256",
          "name": "salt",
          "type": "uint256"
        }
      ],
      "name": "getDeploymentAddress",
      "outputs": [
        {
          "internalType": "address",
          "name": "",
          "type": "address"
        }
      ],
      "stateMutability": "view",
      "type": "function"
    }
  ],
  "bytecode": "0x608060405234801561001057600080fd5b506112fa806100206000396000f3fe608060405234801561001057600080fd5b50600436106100365760003560e01c80634861f39d1461003b578063ffb5b6af1461006a575b600080fd5b61004e6100493660046101da565b61007d565b6040516001600160a01b03909116815260200160405180910390f35b61004e6100783660046101da565b610161565b60008060ff60f81b308460405180602001610097906101b5565b601f1982820381018352601f9091011660408181526001600160a01b038b811660208401528a169082015260600160408051601f19818403018152908290526100e39291602001610256565b6040516020818303038152906040528051906020012060405160200161014094939291906001600160f81b031994909416845260609290921b6bffffffffffffffffffffffff191660018401526015830152603582015260550190565b60408051808303601f19018152919052805160209091012095945050505050565b60008160001b8484604051610175906101b5565b6001600160a01b039283168152911660208201526040018190604051809103906000f59050801580156101ac573d6000803e3d6000fd5b50949350505050565b6110518061027483390190565b6001600160a01b03811681146101d757600080fd5b50565b6000806000606084860312156101ef57600080fd5b83356101fa816101c2565b9250602084013561020a816101c2565b929592945050506040919091013590565b6000815160005b8181101561023c5760208185018101518683015201610222565b8181111561024b576000828601525b509290920192915050565b600061026b610265838661021b565b8461021b565b94935050505056fe608060405234801561001057600080fd5b5060405161105138038061105183398101604081905261002f9161008f565b600180546001600160a01b039384166001600160a01b031990911617905560008054919092166c01000000000000000000000000026001600160601b039091161790556100c9565b6001600160a01b038116811461008c57600080fd5b50565b600080604083850312156100a257600080fd5b82516100ad81610077565b60208401519092506100be81610077565b809150509250929050565b610f79806100d86000396000f3fe6080604052600436106100ab5760003560e01c80638da5cb5b116100645780638da5cb5b14610161578063a9059cbb146101a5578063affed0e0146101c5578063b0d691fe146101ed578063c399ec881461020b578063d0cb75fa1461022057600080fd5b80630565bb67146100b75780630825d1fc146100d95780631b71bb6e146100f95780634a58db19146101195780634d44560d1461012157806380c5c7d01461014157600080fd5b366100b257005b600080fd5b3480156100c357600080fd5b506100d76100d2366004610c33565b610240565b005b3480156100e557600080fd5b506100d76100f4366004610cbc565b61028f565b34801561010557600080fd5b506100d7610114366004610d23565b6102c9565b6100d76102dd565b34801561012d57600080fd5b506100d761013c366004610d47565b61034e565b34801561014d57600080fd5b506100d761015c366004610c33565b6103ca565b34801561016d57600080fd5b5060005461018890600160601b90046001600160a01b031681565b6040516001600160a01b0390911681526020015b60405180910390f35b3480156101b157600080fd5b506100d76101c0366004610d47565b6103d2565b3480156101d157600080fd5b506000546001600160601b03165b60405190815260200161019c565b3480156101f957600080fd5b506001546001600160a01b0316610188565b34801561021757600080fd5b506101df610415565b34801561022c57600080fd5b506100d761023b366004610db8565b610498565b610248610598565b610289848484848080601f0160208091040260200160405190810160405280939291908181526020018383808284376000920191909152506105f292505050565b50505050565b610297610662565b6102a28484846106bc565b6102af6040850185610e24565b151590506102c0576102c0846107c9565b6102898161085b565b6102d16108a8565b6102da816108b0565b50565b60006102f16001546001600160a01b031690565b6001600160a01b03163460405160006040518083038185875af1925050503d806000811461033b576040519150601f19603f3d011682016040523d82523d6000602084013e610340565b606091505b50509050806102da57600080fd5b610356610598565b6001546001600160a01b031660405163040b850f60e31b81526001600160a01b03848116600483015260248201849052919091169063205c287890604401600060405180830381600087803b1580156103ae57600080fd5b505af11580156103c2573d6000803e3d6000fd5b505050505050565b610248610662565b6103da610598565b6040516001600160a01b0383169082156108fc029083906000818181858888f19350505050158015610410573d6000803e3d6000fd5b505050565b60006104296001546001600160a01b031690565b6040516370a0823160e01b81523060048201526001600160a01b0391909116906370a0823190602401602060405180830381865afa15801561046f573d6000803e3d6000fd5b505050506040513d601f19601f820116820180604052508101906104939190610e6b565b905090565b6104a0610598565b8281146104ea5760405162461bcd60e51b815260206004820152601360248201527277726f6e67206172726179206c656e6774687360681b60448201526064015b60405180910390fd5b60005b838110156105915761057f85858381811061050a5761050a610e84565b905060200201602081019061051f9190610d23565b600085858581811061053357610533610e84565b90506020028101906105459190610e24565b8080601f0160208091040260200160405190810160405280939291908181526020018383808284376000920191909152506105f292505050565b8061058981610eb0565b9150506104ed565b5050505050565b600054600160601b90046001600160a01b03163314806105b757503330145b6105f05760405162461bcd60e51b815260206004820152600a60248201526937b7363c9037bbb732b960b11b60448201526064016104e1565b565b600080846001600160a01b0316848460405161060e9190610ecb565b60006040518083038185875af1925050503d806000811461064b576040519150601f19603f3d011682016040523d82523d6000602084013e610650565b606091505b50915091508161059157805160208201fd5b6001546001600160a01b031633146105f05760405162461bcd60e51b815260206004820152601b60248201527f77616c6c65743a206e6f742066726f6d20456e747279506f696e74000000000060448201526064016104e1565b6000610715836040517f19457468657265756d205369676e6564204d6573736167653a0a3332000000006020820152603c8101829052600090605c01604051602081830303815290604052805190602001209050919050565b9050610765610728610140860186610e24565b8080601f016020809104026020016040519081016040528093929190818152602001838380828437600092019190915250859392505061090c9050565b600054600160601b90046001600160a01b039081169116146102895760405162461bcd60e51b815260206004820152601760248201527f77616c6c65743a2077726f6e67207369676e617475726500000000000000000060448201526064016104e1565b600080546020830135916001600160601b0390911690806107e983610f06565b91906101000a8154816001600160601b0302191690836001600160601b031602179055506001600160601b0316146102da5760405162461bcd60e51b815260206004820152601560248201527477616c6c65743a20696e76616c6964206e6f6e636560581b60448201526064016104e1565b80156102da57604051600090339060001990849084818181858888f193505050503d8060008114610591576040519150601f19603f3d011682016040523d82523d6000602084013e610591565b6105f0610598565b6001546040516001600160a01b038084169216907f450909c1478d09248269d4ad4fa8cba61ca3f50faed58c7aedefa51c7f62b83a90600090a3600180546001600160a01b0319166001600160a01b0392909216919091179055565b600080600061091b8585610930565b9150915061092881610976565b509392505050565b6000808251604114156109675760208301516040840151606085015160001a61095b87828585610b31565b9450945050505061096f565b506000905060025b9250929050565b600081600481111561098a5761098a610f2d565b14156109935750565b60018160048111156109a7576109a7610f2d565b14156109f55760405162461bcd60e51b815260206004820152601860248201527f45434453413a20696e76616c6964207369676e6174757265000000000000000060448201526064016104e1565b6002816004811115610a0957610a09610f2d565b1415610a575760405162461bcd60e51b815260206004820152601f60248201527f45434453413a20696e76616c6964207369676e6174757265206c656e6774680060448201526064016104e1565b6003816004811115610a6b57610a6b610f2d565b1415610ac45760405162461bcd60e51b815260206004820152602260248201527f45434453413a20696e76616c6964207369676e6174757265202773272076616c604482015261756560f01b60648201526084016104e1565b6004816004811115610ad857610ad8610f2d565b14156102da5760405162461bcd60e51b815260206004820152602260248201527f45434453413a20696e76616c6964207369676e6174757265202776272076616c604482015261756560f01b60648201526084016104e1565b6000807f7fffffffffffffffffffffffffffffff5d576e7357a4501ddfe92f46681b20a0831115610b685750600090506003610c15565b8460ff16601b14158015610b8057508460ff16601c14155b15610b915750600090506004610c15565b6040805160008082526020820180845289905260ff881692820192909252606081018690526080810185905260019060a0016020604051602081039080840390855afa158015610be5573d6000803e3d6000fd5b5050604051601f1901519150506001600160a01b038116610c0e57600060019250925050610c15565b9150600090505b94509492505050565b6001600160a01b03811681146102da57600080fd5b60008060008060608587031215610c4957600080fd5b8435610c5481610c1e565b935060208501359250604085013567ffffffffffffffff80821115610c7857600080fd5b818701915087601f830112610c8c57600080fd5b813581811115610c9b57600080fd5b886020828501011115610cad57600080fd5b95989497505060200194505050565b60008060008060808587031215610cd257600080fd5b843567ffffffffffffffff811115610ce957600080fd5b85016101608188031215610cfc57600080fd5b9350602085013592506040850135610d1381610c1e565b9396929550929360600135925050565b600060208284031215610d3557600080fd5b8135610d4081610c1e565b9392505050565b60008060408385031215610d5a57600080fd5b8235610d6581610c1e565b946020939093013593505050565b60008083601f840112610d8557600080fd5b50813567ffffffffffffffff811115610d9d57600080fd5b6020830191508360208260051b850101111561096f57600080fd5b60008060008060408587031215610dce57600080fd5b843567ffffffffffffffff80821115610de657600080fd5b610df288838901610d73565b90965094506020870135915080821115610e0b57600080fd5b50610e1887828801610d73565b95989497509550505050565b6000808335601e19843603018112610e3b57600080fd5b83018035915067ffffffffffffffff821115610e5657600080fd5b60200191503681900382131561096f57600080fd5b600060208284031215610e7d57600080fd5b5051919050565b634e487b7160e01b600052603260045260246000fd5b634e487b7160e01b600052601160045260246000fd5b6000600019821415610ec457610ec4610e9a565b5060010190565b6000825160005b81811015610eec5760208186018101518583015201610ed2565b81811115610efb576000828501525b509190910192915050565b60006001600160601b0380831681811415610f2357610f23610e9a565b6001019392505050565b634e487b7160e01b600052602160045260246000fdfea2646970667358221220e0681d7034473c9f0212cad8d9cbe318f35ac253c92b0199ff1df522c29d78a964736f6c634300080c0033a2646970667358221220e68a5df1fb5a9518ae240555b58a0f9300279a933a034e3eab0de5ea42fcc20864736f6c634300080c0033",
  "linkReferences": {},
  "deployedLinkReferences": {}
}